{
  "contractName": "Lottery",
  "abi": [
    {
      "inputs": [],
      "stateMutability": "nonpayable",
      "type": "constructor"
    },
    {
      "inputs": [],
      "name": "owner",
      "outputs": [
        {
          "internalType": "address",
          "name": "",
          "type": "address"
        }
      ],
      "stateMutability": "view",
      "type": "function",
      "constant": true
    },
    {
      "inputs": [
        {
          "internalType": "uint256",
          "name": "",
          "type": "uint256"
        }
      ],
      "name": "players",
      "outputs": [
        {
          "internalType": "address",
          "name": "",
          "type": "address"
        }
      ],
      "stateMutability": "view",
      "type": "function",
      "constant": true
    },
    {
      "inputs": [],
      "name": "enter",
      "outputs": [],
      "stateMutability": "payable",
      "type": "function",
      "payable": true
    },
    {
      "inputs": [],
      "name": "getBalanceL",
      "outputs": [
        {
          "internalType": "uint256",
          "name": "",
          "type": "uint256"
        }
      ],
      "stateMutability": "view",
      "type": "function",
      "constant": true
    },
    {
      "inputs": [],
      "name": "getPlayersCount",
      "outputs": [
        {
          "internalType": "uint256",
          "name": "",
          "type": "uint256"
        }
      ],
      "stateMutability": "view",
      "type": "function",
      "constant": true
    },
    {
      "inputs": [],
      "name": "pickwinner",
      "outputs": [],
      "stateMutability": "nonpayable",
      "type": "function"
    },
    {
      "inputs": [],
      "name": "amIPlayer",
      "outputs": [
        {
          "internalType": "bool",
          "name": "",
          "type": "bool"
        }
      ],
      "stateMutability": "view",
      "type": "function",
      "constant": true
    }
  ],
  "bytecode": "0x608060405234801561001057600080fd5b50336000806101000a81548173ffffffffffffffffffffffffffffffffffffffff021916908373ffffffffffffffffffffffffffffffffffffffff160217905550610aff806100606000396000f3fe6080604052600436106100705760003560e01c8063a76594bf1161004e578063a76594bf146100e2578063c447880d1461010d578063e97dcb6214610138578063f71d96cb1461014257610070565b8063100e4e8b1461007557806371b80060146100a05780638da5cb5b146100b7575b600080fd5b34801561008157600080fd5b5061008a61017f565b6040516100979190610896565b60405180910390f35b3480156100ac57600080fd5b506100b5610293565b005b3480156100c357600080fd5b506100cc6104ae565b6040516100d9919061087b565b60405180910390f35b3480156100ee57600080fd5b506100f76104d2565b6040516101049190610951565b60405180910390f35b34801561011957600080fd5b506101226104df565b60405161012f9190610951565b60405180910390f35b6101406104e7565b005b34801561014e57600080fd5b5061016960048036038101906101649190610662565b610596565b604051610176919061087b565b60405180910390f35b6000806000905060005b60018054905081101561024a573373ffffffffffffffffffffffffffffffffffffffff16600182815481106101e7577f4e487b7100000000000000000000000000000000000000000000000000000000600052603260045260246000fd5b9060005260206000200160009054906101000a900473ffffffffffffffffffffffffffffffffffffffff1673ffffffffffffffffffffffffffffffffffffffff161415610237576001915061024a565b8080610242906109d0565b915050610189565b508061028b576040517f08c379a0000000000000000000000000000000000000000000000000000000008152600401610282906108b1565b60405180910390fd5b600191505090565b60008054906101000a900473ffffffffffffffffffffffffffffffffffffffff1673ffffffffffffffffffffffffffffffffffffffff163373ffffffffffffffffffffffffffffffffffffffff1614610321576040517f08c379a000000000000000000000000000000000000000000000000000000000815260040161031890610911565b60405180910390fd5b6002600180549050101561036a576040517f08c379a000000000000000000000000000000000000000000000000000000000815260040161036190610931565b60405180910390fd5b600060018054905061037a6105d5565b6103849190610a23565b90506000600182815481106103c2577f4e487b7100000000000000000000000000000000000000000000000000000000600052603260045260246000fd5b9060005260206000200160009054906101000a900473ffffffffffffffffffffffffffffffffffffffff16905060008173ffffffffffffffffffffffffffffffffffffffff164760405161041590610829565b60006040518083038185875af1925050503d8060008114610452576040519150601f19603f3d011682016040523d82523d6000602084013e610457565b606091505b505090508061049b576040517f08c379a0000000000000000000000000000000000000000000000000000000008152600401610492906108d1565b60405180910390fd5b600160006104a9919061060f565b505050565b60008054906101000a900473ffffffffffffffffffffffffffffffffffffffff1681565b6000600180549050905090565b600047905090565b671bc16d674ec800003414610531576040517f08c379a0000000000000000000000000000000000000000000000000000000008152600401610528906108f1565b60405180910390fd5b6001339080600181540180825580915050600190039060005260206000200160009091909190916101000a81548173ffffffffffffffffffffffffffffffffffffffff021916908373ffffffffffffffffffffffffffffffffffffffff160217905550565b600181815481106105a657600080fd5b906000526020600020016000915054906101000a900473ffffffffffffffffffffffffffffffffffffffff1681565b600042446001805490506040516020016105f19392919061083e565b6040516020818303038152906040528051906020012060001c905090565b508054600082559060005260206000209081019061062d9190610630565b50565b5b80821115610649576000816000905550600101610631565b5090565b60008135905061065c81610ab2565b92915050565b60006020828403121561067457600080fd5b60006106828482850161064d565b91505092915050565b61069481610988565b82525050565b6106a38161099a565b82525050565b60006106b6601483610977565b91507f596f7520617265206e6f74206120706c617965720000000000000000000000006000830152602082019050919050565b60006106f6601483610977565b91507f4661696c656420746f2073656e642045746865720000000000000000000000006000830152602082019050919050565b6000610736601283610977565b91507f53656e642065786163746c7920322045544800000000000000000000000000006000830152602082019050919050565b6000610776601583610977565b91507f596f7520617265206e6f7420746865206f776e657200000000000000000000006000830152602082019050919050565b60006107b6601283610977565b91507f4e6f7420656e6f75676820706c617965727300000000000000000000000000006000830152602082019050919050565b60006107f660008361096c565b9150600082019050919050565b61080c816109c6565b82525050565b61082361081e826109c6565b610a19565b82525050565b6000610834826107e9565b9150819050919050565b600061084a8286610812565b60208201915061085a8285610812565b60208201915061086a8284610812565b602082019150819050949350505050565b6000602082019050610890600083018461068b565b92915050565b60006020820190506108ab600083018461069a565b92915050565b600060208201905081810360008301526108ca816106a9565b9050919050565b600060208201905081810360008301526108ea816106e9565b9050919050565b6000602082019050818103600083015261090a81610729565b9050919050565b6000602082019050818103600083015261092a81610769565b9050919050565b6000602082019050818103600083015261094a816107a9565b9050919050565b60006020820190506109666000830184610803565b92915050565b600081905092915050565b600082825260208201905092915050565b6000610993826109a6565b9050919050565b60008115159050919050565b600073ffffffffffffffffffffffffffffffffffffffff82169050919050565b6000819050919050565b60006109db826109c6565b91507fffffffffffffffffffffffffffffffffffffffffffffffffffffffffffffffff821415610a0e57610a0d610a54565b5b600182019050919050565b6000819050919050565b6000610a2e826109c6565b9150610a39836109c6565b925082610a4957610a48610a83565b5b828206905092915050565b7f4e487b7100000000000000000000000000000000000000000000000000000000600052601160045260246000fd5b7f4e487b7100000000000000000000000000000000000000000000000000000000600052601260045260246000fd5b610abb816109c6565b8114610ac657600080fd5b5056fea26469706673582212202cf6287e81c1def075da65f020e67c53fa80794afe18e04b7388cf26234cdde064736f6c63430008000033",
  "immutableReferences": {},
  "source": "// SPDX-License-Identifier: MIT\r\n\r\npragma solidity ^0.8.0;\r\n \r\ncontract Lottery {\r\n\r\n    address public owner;\r\n\r\n    address[] public players;\r\n \r\n    constructor() {\r\n\r\n        owner = msg.sender;\r\n\r\n    }\r\n \r\n    modifier OnlyOwner() {\r\n\r\n        require(msg.sender == owner, \"You are not the owner\");\r\n\r\n        _;\r\n\r\n    }\r\n\r\n    modifier OnlyPlayer() {\r\n\r\n    bool isPlayer = false;\r\n \r\n    for (uint i = 0; i < players.length; i++) {\r\n\r\n        if (players[i] == msg.sender) {\r\n\r\n            isPlayer = true;\r\n\r\n            break;\r\n\r\n        }\r\n\r\n    }\r\n \r\n    require(isPlayer, \"You are not a player\");\r\n\r\n    _;\r\n\r\n}\r\n \r\n \r\n    function enter() external payable {\r\n\r\n        require(msg.value == 2 ether, \"Send exactly 2 ETH\");\r\n\r\n        players.push(msg.sender);\r\n\r\n    }\r\n \r\n    function getBalanceL() public view returns (uint256) {\r\n\r\n        return address(this).balance;\r\n\r\n    }\r\n \r\n    function getPlayersCount() public view returns (uint) {\r\n\r\n    return players.length;\r\n\r\n    }\r\n \r\n    function random() internal view returns (uint) {\r\n\r\n        return uint(\r\n\r\n            keccak256(\r\n\r\n                abi.encodePacked(\r\n\r\n                    block.timestamp,\r\n\r\n                    block.difficulty,\r\n\r\n                    players.length\r\n\r\n                )\r\n\r\n            )\r\n\r\n        );\r\n\r\n    }\r\n \r\n    function pickwinner() external OnlyOwner{\r\n\r\n        require(players.length >= 2, \"Not enough players\");\r\n \r\n        uint index = random() % players.length;\r\n\r\n        address winner = players[index];\r\n \r\n        (bool sent, ) = payable(winner).call{value: address(this).balance}(\"\");\r\n\r\n        require(sent, \"Failed to send Ether\");\r\n\r\n        delete players;\r\n\r\n    }\r\n\r\n    function amIPlayer() external view OnlyPlayer returns (bool) {\r\n\r\n        return true;\r\n\r\n    }\r\n\r\n}\r\n ",
  "sourcePath": "C:\\Users\\dev\\Desktop\\ert\\Blockchain-SPR421\\truffle\\contracts\\Lottery.sol",
  "compiler": {
    "name": "solc",
    "version": "0.8.0+commit.c7dfd78e.Emscripten.clang"
  },
  "schemaVersion": "3.4.16",
  "updatedAt": "2026-02-21T10:45:39.262Z",
  "networkType": "ethereum",
  "devdoc": {
    "kind": "dev",
    "methods": {},
    "version": 1
  },
  "userdoc": {
    "kind": "user",
    "methods": {},
    "version": 1
  }
}